{
  "address": "0xe7f1725E7734CE288F8367e1Bb143E90bb3F0512",
  "abi": [
    {
      "inputs": [
        {
          "internalType": "address",
          "name": "priceFeedAddress",
          "type": "address"
        }
      ],
      "stateMutability": "nonpayable",
      "type": "constructor"
    },
    {
      "inputs": [],
      "name": "FundMe__NotOwner",
      "type": "error"
    },
    {
      "inputs": [],
      "name": "MINIMUM_USD",
      "outputs": [
        {
          "internalType": "uint256",
          "name": "",
          "type": "uint256"
        }
      ],
      "stateMutability": "view",
      "type": "function"
    },
    {
      "inputs": [],
      "name": "fund",
      "outputs": [],
      "stateMutability": "payable",
      "type": "function"
    },
    {
      "inputs": [
        {
          "internalType": "uint256",
          "name": "index",
          "type": "uint256"
        }
      ],
      "name": "getFunderAt",
      "outputs": [
        {
          "internalType": "address",
          "name": "",
          "type": "address"
        }
      ],
      "stateMutability": "view",
      "type": "function"
    },
    {
      "inputs": [],
      "name": "getOwner",
      "outputs": [
        {
          "internalType": "address",
          "name": "",
          "type": "address"
        }
      ],
      "stateMutability": "view",
      "type": "function"
    },
    {
      "inputs": [],
      "name": "getPriceFeed",
      "outputs": [
        {
          "internalType": "contract AggregatorV3Interface",
          "name": "",
          "type": "address"
        }
      ],
      "stateMutability": "view",
      "type": "function"
    },
    {
      "inputs": [
        {
          "internalType": "address",
          "name": "funder",
          "type": "address"
        }
      ],
      "name": "getaddressToAmmountFunded",
      "outputs": [
        {
          "internalType": "uint256",
          "name": "",
          "type": "uint256"
        }
      ],
      "stateMutability": "view",
      "type": "function"
    },
    {
      "inputs": [],
      "name": "withdraw",
      "outputs": [],
      "stateMutability": "nonpayable",
      "type": "function"
    },
    {
      "inputs": [],
      "name": "withdrawButCheaper",
      "outputs": [],
      "stateMutability": "nonpayable",
      "type": "function"
    }
  ],
  "transactionHash": "0x92b44eca5301b29a724c3cb130d70ae7187e3b84007fd999e5d59ed350973dbc",
  "args": [
    "0x5FbDB2315678afecb367f032d93F642f64180aa3"
  ],
  "numDeployments": 1,
  "solcInputHash": "88a59c1fe5a67e29d56a6cb527d7356f",
  "bytecode": "0x60a06040523480156200001157600080fd5b50604051620011ef380380620011ef83398181016040528101906200003791906200011d565b3373ffffffffffffffffffffffffffffffffffffffff1660808173ffffffffffffffffffffffffffffffffffffffff168152505080600260006101000a81548173ffffffffffffffffffffffffffffffffffffffff021916908373ffffffffffffffffffffffffffffffffffffffff160217905550506200014f565b600080fd5b600073ffffffffffffffffffffffffffffffffffffffff82169050919050565b6000620000e582620000b8565b9050919050565b620000f781620000d8565b81146200010357600080fd5b50565b6000815190506200011781620000ec565b92915050565b600060208284031215620001365762000135620000b3565b5b6000620001468482850162000106565b91505092915050565b60805161106f62000180600039600081816101b50152818161043d015281816106330152610722015261106f6000f3fe60806040526004361061007b5760003560e01c806389377ca81161004e57806389377ca814610116578063893d20e8146101535780639e87a5cd1461017e578063b60d4288146101a95761007b565b80633ccfd60b146100805780634237b1771461009757806348079dff146100d45780636b69a592146100eb575b600080fd5b34801561008c57600080fd5b506100956101b3565b005b3480156100a357600080fd5b506100be60048036038101906100b99190610a81565b6103f3565b6040516100cb9190610ac7565b60405180910390f35b3480156100e057600080fd5b506100e961043b565b005b3480156100f757600080fd5b506101006106c9565b60405161010d9190610ac7565b60405180910390f35b34801561012257600080fd5b5061013d60048036038101906101389190610b0e565b6106d6565b60405161014a9190610b4a565b60405180910390f35b34801561015f57600080fd5b5061016861071e565b6040516101759190610b4a565b60405180910390f35b34801561018a57600080fd5b50610193610746565b6040516101a09190610bc4565b60405180910390f35b6101b1610770565b005b7f000000000000000000000000000000000000000000000000000000000000000073ffffffffffffffffffffffffffffffffffffffff163373ffffffffffffffffffffffffffffffffffffffff1614610238576040517f579610db00000000000000000000000000000000000000000000000000000000815260040160405180910390fd5b60005b6001805490508110156102e35760006001828154811061025e5761025d610bdf565b5b9060005260206000200160009054906101000a900473ffffffffffffffffffffffffffffffffffffffff16905060008060008373ffffffffffffffffffffffffffffffffffffffff1673ffffffffffffffffffffffffffffffffffffffff168152602001908152602001600020819055505080806102db90610c3d565b91505061023b565b50600067ffffffffffffffff8111156102ff576102fe610c85565b5b60405190808252806020026020018201604052801561032d5781602001602082028036833780820191505090505b5060019080519060200190610343929190610977565b5060003373ffffffffffffffffffffffffffffffffffffffff164760405161036a90610ce5565b60006040518083038185875af1925050503d80600081146103a7576040519150601f19603f3d011682016040523d82523d6000602084013e6103ac565b606091505b50509050806103f0576040517f08c379a00000000000000000000000000000000000000000000000000000000081526004016103e790610d57565b60405180910390fd5b50565b60008060008373ffffffffffffffffffffffffffffffffffffffff1673ffffffffffffffffffffffffffffffffffffffff168152602001908152602001600020549050919050565b7f000000000000000000000000000000000000000000000000000000000000000073ffffffffffffffffffffffffffffffffffffffff163373ffffffffffffffffffffffffffffffffffffffff16146104c0576040517f579610db00000000000000000000000000000000000000000000000000000000815260040160405180910390fd5b6000600180548060200260200160405190810160405280929190818152602001828054801561054457602002820191906000526020600020905b8160009054906101000a900473ffffffffffffffffffffffffffffffffffffffff1673ffffffffffffffffffffffffffffffffffffffff16815260200190600101908083116104fa575b5050505050905060005b81518110156105ce57600082828151811061056c5761056b610bdf565b5b6020026020010151905060008060008373ffffffffffffffffffffffffffffffffffffffff1673ffffffffffffffffffffffffffffffffffffffff168152602001908152602001600020819055505080806105c690610c3d565b91505061054e565b50600067ffffffffffffffff8111156105ea576105e9610c85565b5b6040519080825280602002602001820160405280156106185781602001602082028036833780820191505090505b506001908051906020019061062e929190610977565b5060007f000000000000000000000000000000000000000000000000000000000000000073ffffffffffffffffffffffffffffffffffffffff164760405161067590610ce5565b60006040518083038185875af1925050503d80600081146106b2576040519150601f19603f3d011682016040523d82523d6000602084013e6106b7565b606091505b50509050806106c557600080fd5b5050565b6802b5e3af16b188000081565b6000600182815481106106ec576106eb610bdf565b5b9060005260206000200160009054906101000a900473ffffffffffffffffffffffffffffffffffffffff169050919050565b60007f0000000000000000000000000000000000000000000000000000000000000000905090565b6000600260009054906101000a900473ffffffffffffffffffffffffffffffffffffffff16905090565b6802b5e3af16b18800006107af600260009054906101000a900473ffffffffffffffffffffffffffffffffffffffff16346108aa90919063ffffffff16565b10156107f0576040517f08c379a00000000000000000000000000000000000000000000000000000000081526004016107e790610dc3565b60405180910390fd5b346000803373ffffffffffffffffffffffffffffffffffffffff1673ffffffffffffffffffffffffffffffffffffffff168152602001908152602001600020600082825461083e9190610de3565b925050819055506001339080600181540180825580915050600190039060005260206000200160009091909190916101000a81548173ffffffffffffffffffffffffffffffffffffffff021916908373ffffffffffffffffffffffffffffffffffffffff160217905550565b6000806108b6836108e6565b90506000670de0b6b3a764000085836108cf9190610e17565b6108d99190610e88565b9050809250505092915050565b6000808273ffffffffffffffffffffffffffffffffffffffff1663feaf968c6040518163ffffffff1660e01b815260040160a060405180830381865afa158015610934573d6000803e3d6000fd5b505050506040513d601f19601f820116820180604052508101906109589190610f46565b5050509150506402540be4008161096f9190610fc1565b915050919050565b8280548282559060005260206000209081019282156109f0579160200282015b828111156109ef5782518260006101000a81548173ffffffffffffffffffffffffffffffffffffffff021916908373ffffffffffffffffffffffffffffffffffffffff16021790555091602001919060010190610997565b5b5090506109fd9190610a01565b5090565b5b80821115610a1a576000816000905550600101610a02565b5090565b600080fd5b600073ffffffffffffffffffffffffffffffffffffffff82169050919050565b6000610a4e82610a23565b9050919050565b610a5e81610a43565b8114610a6957600080fd5b50565b600081359050610a7b81610a55565b92915050565b600060208284031215610a9757610a96610a1e565b5b6000610aa584828501610a6c565b91505092915050565b6000819050919050565b610ac181610aae565b82525050565b6000602082019050610adc6000830184610ab8565b92915050565b610aeb81610aae565b8114610af657600080fd5b50565b600081359050610b0881610ae2565b92915050565b600060208284031215610b2457610b23610a1e565b5b6000610b3284828501610af9565b91505092915050565b610b4481610a43565b82525050565b6000602082019050610b5f6000830184610b3b565b92915050565b6000819050919050565b6000610b8a610b85610b8084610a23565b610b65565b610a23565b9050919050565b6000610b9c82610b6f565b9050919050565b6000610bae82610b91565b9050919050565b610bbe81610ba3565b82525050565b6000602082019050610bd96000830184610bb5565b92915050565b7f4e487b7100000000000000000000000000000000000000000000000000000000600052603260045260246000fd5b7f4e487b7100000000000000000000000000000000000000000000000000000000600052601160045260246000fd5b6000610c4882610aae565b91507fffffffffffffffffffffffffffffffffffffffffffffffffffffffffffffffff8203610c7a57610c79610c0e565b5b600182019050919050565b7f4e487b7100000000000000000000000000000000000000000000000000000000600052604160045260246000fd5b600081905092915050565b50565b6000610ccf600083610cb4565b9150610cda82610cbf565b600082019050919050565b6000610cf082610cc2565b9150819050919050565b600082825260208201905092915050565b7f43616c6c206661696c6564000000000000000000000000000000000000000000600082015250565b6000610d41600b83610cfa565b9150610d4c82610d0b565b602082019050919050565b60006020820190508181036000830152610d7081610d34565b9050919050565b7f596f75206e65656420746f207370656e64206d6f726520455448210000000000600082015250565b6000610dad601b83610cfa565b9150610db882610d77565b602082019050919050565b60006020820190508181036000830152610ddc81610da0565b9050919050565b6000610dee82610aae565b9150610df983610aae565b9250828201905080821115610e1157610e10610c0e565b5b92915050565b6000610e2282610aae565b9150610e2d83610aae565b9250828202610e3b81610aae565b91508282048414831517610e5257610e51610c0e565b5b5092915050565b7f4e487b7100000000000000000000000000000000000000000000000000000000600052601260045260246000fd5b6000610e9382610aae565b9150610e9e83610aae565b925082610eae57610ead610e59565b5b828204905092915050565b600069ffffffffffffffffffff82169050919050565b610ed881610eb9565b8114610ee357600080fd5b50565b600081519050610ef581610ecf565b92915050565b6000819050919050565b610f0e81610efb565b8114610f1957600080fd5b50565b600081519050610f2b81610f05565b92915050565b600081519050610f4081610ae2565b92915050565b600080600080600060a08688031215610f6257610f61610a1e565b5b6000610f7088828901610ee6565b9550506020610f8188828901610f1c565b9450506040610f9288828901610f31565b9350506060610fa388828901610f31565b9250506080610fb488828901610ee6565b9150509295509295909350565b6000610fcc82610efb565b9150610fd783610efb565b9250828202610fe581610efb565b91507f8000000000000000000000000000000000000000000000000000000000000000841460008412161561101d5761101c610c0e565b5b828205841483151761103257611031610c0e565b5b509291505056fea2646970667358221220288c7e871de9ac585c80a28985669e57907492a780f65ab2bb2fdff909bafd5664736f6c63430008120033",
  "devdoc": {
    "kind": "dev",
    "methods": {},
    "version": 1
  },
  "userdoc": {
    "kind": "user",
    "methods": {},
    "version": 1
  },
  "storageLayout": {
    "storage": [
      {
        "astId": 321,
        "contract": "contracts/FundMe.sol:FundMe",
        "label": "s_addressToAmountFunded",
        "offset": 0,
        "slot": "0",
        "type": "t_mapping(t_address,t_uint256)"
      },
      {
        "astId": 324,
        "contract": "contracts/FundMe.sol:FundMe",
        "label": "s_funders",
        "offset": 0,
        "slot": "1",
        "type": "t_array(t_address)dyn_storage"
      },
      {
        "astId": 336,
        "contract": "contracts/FundMe.sol:FundMe",
        "label": "s_priceFeed",
        "offset": 0,
        "slot": "2",
        "type": "t_contract(AggregatorV3Interface)102"
      }
    ],
    "types": {
      "t_address": {
        "encoding": "inplace",
        "label": "address",
        "numberOfBytes": "20"
      },
      "t_array(t_address)dyn_storage": {
        "base": "t_address",
        "encoding": "dynamic_array",
        "label": "address[]",
        "numberOfBytes": "32"
      },
      "t_contract(AggregatorV3Interface)102": {
        "encoding": "inplace",
        "label": "contract AggregatorV3Interface",
        "numberOfBytes": "20"
      },
      "t_mapping(t_address,t_uint256)": {
        "encoding": "mapping",
        "key": "t_address",
        "label": "mapping(address => uint256)",
        "numberOfBytes": "32",
        "value": "t_uint256"
      },
      "t_uint256": {
        "encoding": "inplace",
        "label": "uint256",
        "numberOfBytes": "32"
      }
    }
  }
}